:1000000050C0000075C0000073C0000071C0000047
:100010006FC000006DC0000033C6000069C0000062
:1000200067C0000065C0000063C0000061C0000040
:100030005FC000005DC000005BC0000059C0000050
:1000400057C0000055C0000053C0000051C0000060
:10005000ABC500004DC000004BC0000049C000000F
:10006000C7C5000045C0000043C0000041C00000FB
:100070003FC0000051C500003BC0000039C0000077
:1000800037C0000035C00000D7C5000069C50000BA
:100090001BC50000EBC40000C4C4000029C0000060
:1000A0008A0611241FBECFEFCDBFDFE3DEBF18E20B
:1000B000A0E0B8E2E5E7F8E102C005900D92A830B3
:1000C000B107D9F729E2A8E0B8E201C01D92A03734
:1000D000B207E1F710E0C1E5D0E004C02197FE01CE
:1000E0000E94C10BC035D107C9F779D60C94D60B45
:1000F00087CFFC01508D418D252F30E0842F90E07B
:10010000821B930B541710F0CF9608950197089512
:10011000FC0196898789981761F0A789AE0FBF2FD8
:10012000B11D5D968C9197899F5F9F73978B90E02F
:1001300008958FEF9FEF0895FC019689878998179E
:1001400031F08789E80FF11D858D90E008958FEFDC
:100150009FEF0895FC0196892789892F90E0805CA4
:100160009F4F821B91098F7399270895CF93DF9337
:10017000EC01E881F9810680F781E02D0995EC8595
:10018000FD8586818F738683EC85FD8585818F75DE
:1001900085838F898E8B1D8ADF91CF910895FC0115
:1001A000613019F4648B81E00895148A6623D9F3D1
:1001B00080E00895DC0154961C92549754968C91DB
:1001C00054978230A0F4282F30E0F901EE0FFF1F82
:1001D000E20FF31FEA0FFB1F9785961303C0968566
:1001E000941749F08F5F54968C935497E7CF5496A9
:1001F0001C9280E0089581E00895CF93DF93FC0185
:10020000908D818DC485D585981306C08D818F7D95
:100210008D83DF91CF910895A18DAE0FBF2FB11DBA
:10022000A35ABF4F2C91818D90E001968F7399272F
:10023000818F80E48C83A485B58512962C93908D54
:10024000818D9813E6CFA485B58515968C91159769
:100250008F7D15968C93838D8823D9F2848D80931E
:100260001301138ED6CFDC011C96ED91FC910FB6D5
:1002700007FE03C0258125FD03C0248125FDBDCFD8
:100280000895EF92FF920F931F93CF93DF93EC01AA
:1002900081E08D8B988D898D98131CC0AC85BD85B0
:1002A00014968C91149785FF15C012966C93AC85AB
:1002B000BD8580E414968C93EC85FD8585818F7DCA
:1002C000858381E090E0DF91CF911F910F91FF90A6
:1002D000EF9008958091110180FF08C08091130173
:1002E0008C8F8A8D8093130181E08B8FF62E088D81
:1002F00010E00F5F1F4F0F731127E02E898D8E11B5
:1003000003C0CE01B0DFFACFE88DEC0FFD2FF11D59
:10031000E35AFF4FF082088FEC85FD85858180626E
:10032000CFCFCF93DF93FC0125892223C1F0EC01CD
:100330008091110180FF08C080911301848F828D0C
:100340008093130181E0838FEC85FD85858185FD98
:1003500003C0848186FD03C0CE0185DFF5CFDF9128
:10036000CF9108958BE798E2F5DE21E0892B09F41F
:1003700020E0822F089580E090E0892B21F0F2DFC9
:1003800081110E94000080E090E0892B49F080E01C
:1003900090E0892B29F00E94000081110E9400004A
:1003A00080E090E0892B49F080E090E0892B29F0F3
:1003B0000E94000081110E94000080E090E0892BE3
:1003C00049F080E090E0892B29F00E940000811123
:1003D0000C9400000895AF92BF92CF92DF92EF92FB
:1003E000FF920F931F93CF93DF936C017B018B01DF
:1003F000040F151FEB015E01AE18BF08C017D1072F
:1004000059F06991D601ED91FC910190F081E02DB8
:10041000C6010995892B79F7C501DF91CF911F910D
:100420000F91FF90EF90DF90CF90BF90AF90089525
:1004300081E00895282F30E0F901E752F84A408121
:100440004F3F09F454C08E3258F4F901E055F84A90
:10045000E081EE2329F0E13099F010F0E63020F150
:10046000F901EE5FF74AE081A0E2EA9FF001112472
:10047000FC5F8081842341F1611120C0468308958F
:10048000F901E55DF74A5081533008F05F5F7091E4
:10049000010A81E090E001C0880F5A95EAF7809543
:1004A00087238093010ADCCF80E1E89FF0011124CB
:1004B000E05AF54F81818F7E8183D2CF643011F471
:1004C0004783089545830895255D374AD9018C9166
:1004D000309771F08F3F61F07096E80FF11D9FB774
:1004E000F8948081611107C0877F80839FBF089542
:1004F000F0E0E0E0F4CF8860F8CF8E3208F49ACFD5
:100500000895EF92FF920F931F93CF93DF93E82EFE
:1005100000915A29F0905929C8E0D0E010E86E2DDA
:1005200061238F2DEADF61E0802FE7DF60E0802F1D
:10053000E4DF1695219799F780E0DF91CF911F9125
:100540000F91FF90EF900895CF93DF9390E0FC011F
:10055000E752F84A20812F3F61F0FC01EE5FF74A35
:10056000E08130E2E39FF0011124FC5F613021F46F
:100570002183DF91CF910895855D974AEC01A88191
:10058000AF3F69F0CF014096A80FB92FB11D9FB7BB
:10059000F89422838C9188608C939FBFEACFB0E05F
:1005A000A0E0F5CFAF92BF92CF92DF92EF92FF9291
:1005B0000F931F93CF93DF93EC016A017B01A22E6F
:1005C0008D89882339F0E881F9810688F789E02D43
:1005D000CE0109950C8910E0BFB6F89460E078E68A
:1005E00089E899E0A70196010E944A0B69017A0106
:1005F0008FEFC81AD80AE80AF80AF694E794D79455
:10060000C794EC85FD8586818D7F8683EC85FD858D
:10061000868186831D8AA09125110A2E000CBB0BB2
:10062000A70196010E94920B20E034E040E050E0E8
:100630000E946C0BEC85FD85C20ED31EE41EF51ED8
:10064000C086D186EC85FD85A782EC85FD858681F7
:10065000806C8683EC85FD8585818068858390919B
:10066000E2058B89809589237801EE0CFF1CF70148
:10067000E00FF11FEC0FFD1F9089892B8093E2059D
:1006800086858E3210F462E05FDF0E0D1F1DC00FF5
:10069000D11F61E08F8531DF8F858E3210F461E0EC
:1006A00053DFBFBEDF91CF911F910F91FF90EF906D
:1006B000DF90CF90BF90AF900895813199F0843151
:1006C00099F0853199F485E08093060681E0809366
:1006D000080680910B0680FFFCCF80911006909158
:1006E0001106089580E0F0CF84E0EECF8FEF90E028
:1006F0000895EF92FF920F931F93CF93DF9390E2B1
:10070000899FE0011124DC5FE984082F000F000FAE
:10071000000FFF24F39410E08E2D8F2179F0E02F4D
:10072000E10FF0E0EE0FFF1FEE5EF74D808191814B
:10073000892B21F00190F081E02D09951F5FFF0CBE
:10074000183051F7E986DF91CF911F910F91FF90FB
:10075000EF9008952FB7F89480910E2890910F286C
:10076000A0911028B09111282FBF80930A28909350
:100770000B28A0930C28B0930D282FB7F8948091E4
:100780000E2890910F28A0911028B09111282FBF0A
:1007900040910A2850910B2860910C2870910D28E7
:1007A000841B950BA60BB70B853F9140A105B105A6
:1007B00030F12FB7F89480910E2890910F28A091D6
:1007C0001028B09111282FBF40910A2850910B2872
:1007D00060910C2870910D28841B950BA60BB70B0C
:1007E000883E9340A105B10550F480917528909101
:1007F0007628C296809375289093762808958091E4
:100800007528909176288C599F4FF4CFFC018081F8
:100810009181FC01FF2790FD06C080E094E1E82B68
:10082000F92B8081089580E093E1F9CFEF92FF9258
:100830000F931F93CF93DF9300D0CDB7DEB78C011A
:100840007B0189839A83CE010196E0DFF7018083E3
:100850000F5F1F4F09831A83CE010196D7DFF7017F
:100860008183C7010F900F90DF91CF911F910F915E
:10087000FF90EF900895FC01FF2790FD12C080E0EB
:1008800094E1E82BF92B60838FB7F8949DE923E07E
:1008900094BF209300108FBF8091021081FDFCCF88
:1008A000089580E093E1EDCFFF920F931F93CF93D4
:1008B000DF9300D0CDB7DEB78C01F62E89839A8303
:1008C000CE010196A3DFF81651F06F2DC8010F90ED
:1008D0000F90DF91CF911F910F91FF90CCCF0F9090
:1008E0000F90DF91CF911F910F91FF9008958F92FC
:1008F0009F92BF92CF92DF92EF92FF920F931F933E
:10090000CF93DF9300D0CDB7DEB78C016B017B01B5
:100910004C0182E0880E911C09831A83F701B19083
:100920007F01CE01019672DFB81619F06B2DC80158
:10093000A2DF0F5F1F4F0815190571F7C6010F9051
:100940000F90DF91CF911F910F91FF90EF90DF906B
:10095000CF90BF909F908F900895DC01ED91FC9116
:100960000488F589E02D23E030E009948F929F926E
:10097000AF92BF920F931F93CF93DF93CDB7DEB7A4
:10098000A197CDBFDEBF19A2423008F44AE08E0124
:100990000F5D1F4F842E912CB12CA12CA501940129
:1009A00079D6E62FB901CA01EA3024F5E05DD80115
:1009B000EE938D01232B242B252B81F790E080E0F3
:1009C000109761F0FD0101900020E9F73197AF0128
:1009D0004A1B5B0BBD018BE798E2FDDCA196CDBF06
:1009E000DEBFDF91CF911F910F91BF90AF909F908D
:1009F0008F900895E95CDBCF42E050E062E778E554
:100A00008BE798E2E8CCCF93DF93BC0190E080E0E5
:100A10004AE0ACDFEC01F0DF8C0F9D1FDF91CF913E
:100A200008951F920F920FB60F9211242F933F93A8
:100A30004F935F936F937F938F939F93AF93BF93E6
:100A4000EF93FF938BE798E2D8DBFF91EF91BF9193
:100A5000AF919F918F917F916F915F914F913F9156
:100A60002F910F900FBE0F901F9018951F920F920D
:100A70000FB60F9211242F938F939F93EF93FF93B1
:100A8000E0918728F0918828818181FD1BC09081A9
:100A9000809191288F5F8F7320919228821741F067
:100AA000E0919128F0E0E558F74D958F80939128DB
:100AB000FF91EF919F918F912F910F900FBE0F900B
:100AC0001F9018958081F4CF1F920F920FB60F924E
:100AD00011248F939F93AF93BF9380910E28909191
:100AE0000F28A0911028B09111280196A11DB11DC9
:100AF00080930E2890930F28A0931028B09311286C
:100B000081E08093B60ABF91AF919F918F910F9032
:100B10000FBE0F901F9018951F920F920FB60F9255
:100B200011242F933F934F935F936F937F938F93F2
:100B30009F93AF93BF93EF93FF9385E0DADDFF912F
:100B4000EF91BF91AF919F918F917F916F915F9145
:100B50004F913F912F910F900FBE0F901F901895BE
:100B60001F920F920FB60F9211242F933F934F9322
:100B70005F936F937F938F939F93AF93BF93EF9305
:100B8000FF9384E0B6DDFF91EF91BF91AF919F910C
:100B90008F917F916F915F914F913F912F910F9026
:100BA0000FBE0F901F9018951F920F920FB60F92C5
:100BB00011242F933F934F935F936F937F938F9362
:100BC0009F93AF93BF93EF93FF9383E092DDFF91E9
:100BD000EF91BF91AF919F918F917F916F915F91B5
:100BE0004F913F912F910F900FBE0F901F9018952E
:100BF0001F920F920FB60F9211242F933F934F9392
:100C00005F936F937F938F939F93AF93BF93EF9374
:100C1000FF9382E06EDDFF91EF91BF91AF919F91C5
:100C20008F917F916F915F914F913F912F910F9095
:100C30000FBE0F901F9018951F920F920FB60F9234
:100C400011242F933F934F935F936F937F938F93D1
:100C50009F93AF93BF93EF93FF9381E04ADDFF91A2
:100C6000EF91BF91AF919F918F917F916F915F9124
:100C70004F913F912F910F900FBE0F901F9018959D
:100C80001F920F920FB60F9211242F933F934F9301
:100C90005F936F937F938F939F93AF93BF93EF93E4
:100CA000FF9380E026DDFF91EF91BF91AF919F917F
:100CB0008F917F916F915F914F913F912F910F9005
:100CC0000FBE0F901F901895FC0140E856E968E9A7
:100CD00070E090E09F5F963011F497E00BC076953E
:100CE000679557954795413089E058078DE3680728
:100CF000710580F784E08183892F8095282F2170EA
:100D000030E084E0220F331F8A95E1F79162922B45
:100D100090830895EF92FF920F931F93CF93DF93E9
:100D2000EBE7F8E21282138288EE93E0A0E0B0E0F5
:100D300084839583A683B78388E598E58083918330
:100D400080E698E08487958788E1868789E18787B0
:100D500080E4808B8AE0818B89E0828B138A148AFD
:100D6000158A168A178A108E118E86E2828F138E4C
:100D7000148E88E199E2A8DF8AE1E82E89E2F82E54
:100D8000F701158282E08483C9E5D9E20FEF0B8376
:100D900080E094E2A4EFB0E08D839E83AF83B887B8
:100DA000198A11E01A8B8EE699E28EDFEB8AFC8AB3
:100DB000088309831A821C831987188B1C861D8659
:100DC0001E861F86198A1A8B8FEF93E08A879B876E
:100DD000DF91CF911F910F91FF90EF900895CF93E6
:100DE000DF9300D0CDB7DEB788ED90E084BF90935D
:100DF0006100809102068660809302068091000661
:100E0000816080930006909102069F7C906590938C
:100E100002061092E20581E08093E4058093030AC4
:100E20008EEF8093270A8093260A90E890932D0AEC
:100E300090932B0A9093290A90932C0A90932A0A54
:100E40009093280A8BE08093000A83E08093E50565
:100E5000E0E8FAE037E02EEF85E0318324879587DC
:100E600080837096E03C4AE0F407B9F71092B10A2B
:100E70008FE19EE48093BC0A9093BD0A8091B50AED
:100E800081608093B50A1092B00A8091B00A8160A7
:100E90008093B00A789462E082E056DB62E084E0FE
:100EA00053DB61E087E050DB60E087E0C3DA40E8D5
:100EB00055E260E070E08BE798E24FDD88E08093D8
:100EC0005B2961E041DB61E080915B2916DB80906A
:100ED0005E2990905F29A0906029B090612940E838
:100EE00056E968E970E080E084169506A606B70624
:100EF00040F476956795579547958F5F8630A1F7B3
:100F000087E0982F909590FBEE24E0F8F12C44E0D8
:100F1000EE0CFF1C4A95E1F781628E2980936E29C1
:100F200084E080936F2980915D29882309F4BCC1F6
:100F3000E0916C29F0916D298091C0088E7F80939B
:100F4000C0081582E0916C29F0916D29858181118D
:100F50000CC016821782108611861286138614869C
:100F600015861686178681E085838091E3058C7F40
:100F70009481892B8093E3058481823031F461E090
:100F80008BE0E2DA61E08DE0DFDA8091C108846015
:100F90008093C1088091C00881628093C0089091BD
:100FA0001829809119299093C0088093C10819824B
:100FB0001A82CE0101962ADC80937028803909F4C8
:100FC00088C1109273281092742864E078E281E05E
:100FD00090E08DDC64E078E290E080E088DC62E024
:100FE00078E283E090E083DC62E078E290E080E009
:100FF0007EDC60E990E080E03EDC66E078E285E05F
:1010000090E075DC66E078E290E080E070DC609172
:10101000042881E090E048DC6091022883E090E0C1
:1010200043DC60E990E080E03FDC6091062885E0E9
:1010300090E03ADC809104289091052880937128F3
:101040009093722880910228909103288093002821
:101050009093012880910628909107288093752805
:10106000909376286091702870E090E080E04AE0EC
:101070007DDCC2DC8091042890910528C4DC80913D
:10108000022890910328BFDC8091062890910728C0
:10109000BADC8AEA93E08093122890931328809117
:1010A0001004887F809310048091100483608093E3
:1010B000100460E087E0BED981E1FFDA7C01809313
:1010C000792890937A2884E1F8DA85E1F6DA6C01E0
:1010D000809377289093782866E078E285E090E026
:1010E000A5DB64E078E281E090E0A0DB62E078E2FA
:1010F00083E090E09BDB8091062890910728209167
:10110000752830917628AC01465F5F4F4217530730
:1011100020F00A972817390740F41092732810928C
:1011200074282093062830930728809104289091F2
:1011300005289C01265F3F4F2E153F0520F00A979A
:10114000E816F90640F41092732810927428E09281
:101150000428F092052880910228909103289C0190
:10116000265F3F4F2E153F0520F00A97E816F90637
:1011700040F41092732810927428E0920228F092A2
:1011800003288090712890907228B12CA12C409057
:10119000002850900128712C612C970150E040E00C
:1011A0002419350946095709C501B40164D2A501BE
:1011B000940124193509460957098ED2CA01B9018B
:1011C000F6D1C7D16093792870937A28C616D706CE
:1011D00020F0609377287093782880916229882383
:1011E00009F460C080917728909178282091632934
:1011F000309164297C012817390708F4790180931C
:1012000065299093662980916A29811179C080E0CF
:1012100090E140916929413009F490622F3FAFE09D
:101220003A0709F070C0E82AF92A60E080915B294A
:1012300064D96F2C5E2C80915D29882309F482C1CA
:10124000E0916C29F0916D2910916E2970906F29B1
:101250008681882319F081FF64C0F8941093C00838
:101260007092C10800006092C4088091C30887FF93
:10127000FCCF8091C40800005092C4088091C3083C
:1012800087FFFCCF8091C408E0916C29F0916D2913
:101290008681882319F081FFD0C0789461E0809125
:1012A0005B292BD968D805CF809159298E3210F44B
:1012B00061E04AD980915A298E3210F461E044D914
:1012C00060E08091592919D960E080915A2915D997
:1012D0006ECE64E078E281E090E0A8DA62E078E245
:1012E00083E090E0A3DA19821A82CE0101968EDAA9
:1012F0008093702866E078E285E090E097DA9ACEF5
:1013000080E090E586CF2F3F334029F4EE0CFF1CA0
:10131000EE0CFF1C88CF24E0EE0CFF1C2A95E1F7B1
:1013200082CF80FF9BCF80849184A284B384C12C20
:10133000D12C7601412C9401A501B601C701A0E092
:1013400014D2A9F1217030E040E050E060E070E09C
:1013500080E090E00AD2F9F02FE290E080E02415DE
:1013600070F0842D86958695869540E2849FC00115
:101370001124805F9B4F242D2770820F911DDC016B
:101380004C919F01240D311DD90150964C93DC01E5
:101390002C91287F2C939401A501B601C70101E08F
:1013A000C9D149015A016B017C014394C4CF8484A3
:1013B0009584A684B784C12CD12C760180E2482E76
:1013C0009401A501B601C701A0E0CFD109F446CF31
:1013D000217030E040E050E060E070E080E090E0BC
:1013E000C4D1F9F0BFE290E080E0B41570F0842D34
:1013F00086958695869520E2829FC0011124805FA4
:101400009B4F242D2770820F911DDC014C919F0171
:10141000240D311DD90150964C93DC012C91287F6D
:101420002C939401A501B601C70101E083D14901C4
:101430005A016B017C014394C3CF80FF2FCF80847E
:101440009184A284B384C12CD12C760110E0940144
:10145000A501B601C701A0E088D191F1217030E06B
:1014600040E050E060E070E080E090E07ED1E1F0AC
:1014700090E080E0103370F4812F869586958695F4
:10148000B0E28B9FC0011124805F9B4F212F2770FA
:10149000820F911D9F01210F311DD90150962C9172
:1014A000DC013C91232B2C939401A501B601C701CB
:1014B00001E040D149015A016B017C011F5FC7CF98
:1014C00084849584A684B784C12CD12C760110E243
:1014D0009401A501B601C701A0E047D109F4DECE11
:1014E000217030E040E050E060E070E080E090E0AB
:1014F0003CD1E1F090E080E0103370F4812F8695CC
:1015000086958695B0E28B9FC0011124805F9B4F2A
:10151000212F2770820F911D9F01210F311DD901AD
:1015200050962C91DC013C91232B2C939401A50126
:10153000B601C70101E0FED049015A016B017C01EF
:101540001F5FC6CF8F2D0E9481028E2D0E948102C7
:10155000A5CE70D088F09F5790F0B92F9927B7513A
:10156000A0F0D1F0660F771F881F991F1AF0BA9567
:10157000C9F712C0B13081F077D0B1E0089574C0DE
:10158000672F782F8827B85F39F0B93FCCF386955D
:1015900077956795B395D9F73EF4909580957095BA
:1015A00061957F4F8F4F9F4F0895E89409C097FB37
:1015B0003EF490958095709561957F4F8F4F9F4F2A
:1015C0009923A9F0F92F96E9BB279395F69587956E
:1015D00077956795B795F111F8CFFAF4BB0F11F431
:1015E00060FF1BC06F5F7F4F8F4F9F4F16C08823D8
:1015F00011F096E911C0772321F09EE8872F762F0E
:1016000005C0662371F096E8862F70E060E02AF04E
:101610009A95660F771F881FDAF7880F969587953A
:1016200097F9089557FD9058440F551F59F05F3FA3
:1016300071F04795880F97FB991F61F09F3F79F0F4
:1016400087950895121613061406551FF2CF469576
:10165000F1DF08C0161617061806991FF1CF8695F8
:101660007105610508940895E894BB2766277727DC
:10167000CB0197F90895DB018F939F9349D0BF91D8
:10168000AF91A29F800D911DA39F900DB29F900DD1
:1016900011240895A1E21A2EAA1BBB1BFD010DC047
:1016A000AA1FBB1FEE1FFF1FA217B307E407F50712
:1016B00020F0A21BB30BE40BF50B661F771F881FEE
:1016C000991F1A9469F760957095809590959B0184
:1016D000AC01BD01CF010895052E97FB16F40094CF
:1016E0000FD057FD05D0D6DF07FC02D046F408C066
:1016F00050954095309521953F4F4F4F5F4F08953E
:1017000090958095709561957F4F8F4F9F4F08956D
:101710003ED0A59F900DB49F900DA49F800D911D6C
:1017200011240895B7FFF4CFF3DF821B930B0895C4
:1017300097FD1094002E083098F00850232F342F76
:10174000452F562F672F782F892F912DF4CF159481
:1017500097958795779567955795479537952795E9
:101760000A95AAF71124002D08950024A7FD0094DE
:101770002A17300540055005600570058005900565
:101780000895EE0FFF1F0590F491E02D0994A29F9C
:10179000B001B39FC001A39F700D811D1124911D45
:1017A000B29F700D811D1124911D0895F894FFCFF3
:1017B0000000000300010200000101000000000021
:1017C0000000000000000000000000000000000019
:1017D0000000000000000000002010012040041064
:1017E0000208010201020408040201040810200496
:1017F00008201008201040408008800102040102E7
:1018000080400202000502010500040101040404F5
:1018100003030303050503030000010102000003A5
:101820000000010202020205050305050400050689
:10183000020401030001000102030201000203048B
:101840000502030504030504060607030700010259
:1018500000010706000000004101EB017900910141
:10186000AA0088009C00DA00CF00AD04D202B600C6
:0518700018020D0A0042
:08187500FF0396005203F40189
:00000001FF
