:100000004FC000005DC000005BC0000059C0000090
:1000100057C0000055C0000053C0000051C0000090
:100020004FC000004DC000004BC0000049C00000A0
:1000300047C0000045C0000043C0000041C00000B0
:100040003FC000003DC000003BC0000039C00000C0
:1000500037C0000035C0000033C0000031C00000D0
:100060002FC000002DC000002BC0000029C00000E0
:1000700027C0000025C0000023C0000021C00000F0
:100080001FC000001DC000001BC0000019C0000000
:1000900018C0000015C0000013C0000011C000000F
:1000A00011241FBECFEFCDBFDFE3DEBF28E2A0E00B
:1000B000B8E201C01D92A430B207E1F72AD088C08F
:1000C0009FCF1F920F920FB60F9211248F939F9381
:1000D000AF93BF938091002890910128A0910228AE
:1000E000B09103280196A11DB11D80930028909323
:1000F0000128A0930228B093032881E08093B60AD8
:10010000BF91AF919F918F910F900FBE0F901F9055
:10011000189588ED90E084BF90936100809102066D
:1001200086608093020680910006816080930006BD
:10013000809102068F7C8065809302061092E20512
:1001400081E08093E4058093030A8EEF8093270A71
:100150008093260A80E880932D0A80932B0A80934F
:10016000290A80932C0A80932A0A8093280A8BE01C
:100170008093000A83E08093E505E0E8FAE037E049
:100180002EEF90E885E031832487958780837096F1
:10019000E03C4AE0F407B9F71092B10A8FE79EE31A
:1001A0008093BC0A9093BD0A8091B50A81608093C8
:1001B000B50A1092B00A8091B00A81608093B00AAB
:1001C0007894C0E0D0E02097F1F30E940000FBCFCC
:0401D000F894FFCFD1
:00000001FF
